:020000040800F2
:10000000E0040020351C0008111C0008131C000827
:10001000151C0008171C0008191C0008000000002F
:100020000000000000000000000000001B1C000891
:100030001D1C0008000000001F1C0008211C0008F7
:10004000591C00085D1C0008611C0008651C0008A4
:10005000691C00086D1C0008711C0008751C000854
:10006000791C00087D1C0008811C0008851C000804
:10007000891C00088D1C0008911C0008951C0008B4
:10008000991C00089D1C0008A11C0008A51C000864
:10009000A91C0008AD1C0008B11C0008B51C000814
:1000A000B91C0008BD1C0008C11C0008C51C0008C4
:1000B000C91C0008CD1C0008D11C0008D51C000874
:1000C000D91C0008DD1C0008E11C0008E51C000824
:1000D000E91C0008ED1C0008F11C0008F51C0008D4
:1000E000F91C0008FD1C0008011D0008051D000882
:1000F000091D00080D1D0008111D0008151D000830
:10010000191D00081D1D0008211D0008251D0008DF
:10011000291D00082D1D0008311D0008351D00088F
:10012000391D00083D1D0008411D0008451D00083F
:10013000491D00084D1D0008511D0008551D0008EF
:10014000591D00085D1D0008611D0008651D00089F
:10015000691D00086D1D0008711D0008751D00084F
:10016000791D00087D1D0008811D0008851D0008FF
:10017000891D00088D1D000800000000000000001F
:10018000911D0008951D00082DE9FC47050065D06C
:10019000DFF8A076DFF8AC66BC68F86800F003080A
:1001A0002878C10604F00C0448D524B10C2C08BFF3
:1001B000B8F1010F2CD13868810702D5A869002851
:1001C0004CD0396808074EBF396871680909286A38
:1001D00001F0F001814206D200F0F2FA00283DD190
:1001E00000F0F5F907E000F0F2F924B9286A00F010
:1001F000E7FA002832D100F086FABA6800F079FAFE
:10020000DFF83806006800F035FB010016D0D8E1B1
:10021000A86928B3396841F00101396000F04CFB4E
:1002200081463868810707D400F046FBA0EB09003F
:100230000328F6D30320C4E100F0C9F92878C107E8
:1002400056D5082C04D00C2C08BFB8F1030F18D1D8
:10025000386881034CD56868002849D10120B0E195
:10026000386840084000386000F026FB8146386856
:100270008107E3D500F020FBA0EB09000328F6D3AB
:10028000D8E76868B0F5803F04D1386840F4803022
:10029000386011E0B0F5A02F386806D140F4802016
:1002A0003860396841F4803105E020F480303860EE
:1002B000396821F480213960686860B100F0FCFA87
:1002C00081463868810313D400F0F6FAA0EB0900E8
:1002D0006528F6D3AEE700F0EFFA8146386881036F
:1002E00006D500F0E9FAA0EB09006528F6D3A1E7EE
:1002F0002878810713D5042C04D00C2C08BFB8F142
:10030000020F22D13868410502D5E8680028A5D03F
:100310007868296920F0F85040EA01607860287810
:10032000010743D568690028706830D040F00100AB
:10033000706000F0C1FA80467068810736D400F022
:10034000BBFA00F040F9F7D374E7E86878B1396890
:1003500041F48071396000F0AFFA80463868410599
:10036000D6D400F0A9FA00F02EF9F7D362E7386886
:1003700020F48070386000F09FFA804638684105AC
:10038000CDD500F099FA00F01EF9F7D352E74008F6
:100390004000706000F090FA80467068810705D5D3
:1003A00000F08AFA00F00FF9F7D343E72878410705
:1003B00067D5B86DC1004FF000080AD4B86D40F0A1
:1003C0008050B8654FF00108B86D00F08050009083
:1003D0000098DFF87494D9F80000C10513D4D9F857
:1003E000000040F48070C9F8000000F065FA824611
:1003F000D9F80000C10506D400F05EFAA0EB0A00AF
:100400000328F5D316E7A868012804D1306840F026
:100410000100306010E00528306806D140F004008B
:100420003060316841F0010105E040084000306073
:10043000316821F004013160A86841F2893960B166
:1004400000F03AFA82463068810713D400F034FA9B
:10045000A0EB0A004845F6D3ECE600F02DFA824600
:100460003068810706D500F027FAA0EB0A0048455E
:10047000F6D3DFE6B8F1000F03D0B86D20F080505E
:10048000B865A86A002800F09B80022878D1F86837
:10049000EA6A00F00301914201BF00F070012A6B8B
:1004A000521EB1EB021F1ED16A6B00F4FE41B1EB8C
:1004B000022F18D1A96B07290CBF0021012100F4DC
:1004C00000328A420FD1EA6B520800F4C001521E7A
:1004D000B1EB425F07D1296C490800F0C060491EAA
:1004E000B0EB416F48D00C2C4BD03868410101D49F
:1004F0003868C1003FF5B2AE386820F080703860CF
:1005000000F0DAF904463868810105D500F0D4F925
:10051000001B0328F7D38DE6F868DFF83013EA6A8A
:100520000840296B1043491E40EA0110EA6B696BD1
:10053000520840EA0120296C521E490840EA425004
:10054000491E40EA4160A96B090940EA4140F86050
:10055000386840F080703860F96841F08071F96067
:1005600000F0AAF904463868810129D400F0A4F902
:10057000001B0328F7D35DE63868810120D4E7E744
:100580000C2C3FF46BAE386820F08070386039680E
:1005900011F0205F03D1F86880088000F860F968E6
:1005A000DFF8AC020140F96000F086F904463868D3
:1005B000810105D500F080F9001B0328F7D339E647
:1005C0000020BDE8F687A0EB0800032870473868D4
:1005D00040F0080038603968286A21F0F0010143D2
:1005E00039607968E86921F47F4141EA0021796046
:1005F00070472DE9F0410400884658D0DFF8546276
:10060000306800F00700404509D23168C90848EA5F
:10061000C1013160306800F00700404547D12078C3
:10062000DFF81052C1072AD56068032802D1296873
:100630008A0108E0022802D129688A0303E0002821
:10064000296802D18A0702D431E04A052FD5A9686A
:10065000890840EA8100A86000F02EF90746A868E2
:10066000616800F00C00B0EB810F08D000F024F9B5
:10067000C01B41F289318842F1D3032037E0207852
:10068000810705D5AA68A06822F0F0020243AA609B
:10069000316801F0070188450BD23068C00848EA8C
:1006A000C0003060316801F00701414501D00120F0
:1006B0001DE02078410705D5AA68E06822F4E062D1
:1006C0000243AA602178080706D5A968206921F4A9
:1006D000605141EAC001A96000F015F8AA6800F075
:1006E00008F8BDE8F0415548006800F0C3B8BDE81F
:1006F000F0815949C2F30312895C4F4A01F01F018E
:10070000C8401060704770B54A4A554B9068D6682B
:100710000025002110F00C0006F00306514C03D018
:100720000C2812D1012E1AD115682E0704D4444D7D
:100730002E68C6F3032502E01568C5F303154A4E7B
:1007400056F8255048B9294624E0042808BF214618
:1007500020D008281ED119461CE00C281AD1D068D8
:1007600000F00300022803D0032808BF1D4600E064
:100770002546D168D068D268C0F306204543C1F34E
:100780000210C2F34161401C491CB5FBF0F0490066
:10079000B0FBF1F1084670BD2748304A0068136885
:1007A0003249C3F3022206E023482C4A006813684A
:1007B0002E49C3F3C222895C01F01F01C840704773
:1007C0007CB52B4E054630680024C10002D500F0F0
:1007D00079F80EE0306840F080503060316801F008
:1007E00080510091009800F06DF8316821F080513F
:1007F0003160B0F5007F04D1802D0CD9A12D09D333
:1008000004E0802D88BF032405D801D1022402E032
:10081000702D00D101240F480168C90844EAC101C4
:100820000160006800F00700A04201D0012076BD01
:10083000002076BD00100240D8000020D00000202B
:100840009410024090100240007000408C809DF98E
:10085000FFFFEEFE00200240F41A000808100240DC
:1008600000127A000024F4003C1B0008501C000811
:100870005810024070B50E4E0446B0680025A0B175
:100880004FF47A710B4AB1FBF0F11068B0FBF1F054
:1008900000F091F848B9102C07D2002221464FF001
:1008A000FF3000F06BF8746000E00125284670BD51
:1008B000CC000020D800002001480068704700BF2D
:1008C000CC000020DFF87400006800F4C0607047BE
:1008D00010B5DFF86810B0F5007F086800F4C0605C
:1008E00019D1B0F5007F1FD00868DFF85420DFF879
:1008F000544020F4C06040F4007000F017F800E0AD
:10090000401E4A69530501D50028F9D148694105BF
:100910000AD5032010BDB0F5806F05D0086820F41B
:10092000C06040F480600860002010BD0860322084
:1009300013684343B3FBF4F0401C70470070004061
:10094000D800002040420F000901020002D42448D0
:1009500081547047234B02F00F021A4402F8041C22
:100960007047214B19684FF6FF020002114000F456
:10097000E06008431D4908431860704770B51A4B82
:100980001C68C4F302230124C3F10705052D2EBF03
:100990000F2504FA05F56D1E1E1D072E34BF00231A
:1009A000DB1E2940994004FA03F3BDE870405B1E4A
:1009B0001A401143C8E710B5401EB0F1807F01D343
:1009C000012010BD0A4C60600F214FF0FF30FFF78F
:1009D000BBFF0021A16007202060002010BD0000A7
:1009E00000E400E018ED00E00CED00E00000FA0586
:1009F00010E000E038B5040009D004F17005696822
:100A000009B900F01EF800F021F8012801D10120F9
:100A100032BD606A08B100F02AF800F00AF821F04F
:100A20002A01FFE7816000F01BF8BDE8324000F0CA
:100A30003ABA2068416821F4904141602068816899
:100A4000704700202870204600F0B8BA2421696061
:100A500020680268520852000260204600F066B822
:100A60002068016841F0010101602046704720467E
:100A700000F0B6B92DE9FC47054605F1700488463B
:100A800060682028174699464DD1B8F1000F14BF71
:100A9000002F012048D02078012844D00121217066
:100AA0000020E0602122626005F15006FFF704FF9C
:100AB000378082467780A868B0F5805F04BF2869D8
:100AC00000280EBF4746404600270021217080467F
:100AD0000FE018F8012B028508E02868B8F1000F34
:100AE000F7D137F8021BC1F3080101857088411E58
:100AF000718053467088CDF80090002807D00022FE
:100B00008021284600F0FCF90028E6D005E000220C
:100B10004021284600F0F4F908B1032004E0202029
:100B20006060002000E00220BDE8F6872DE9F0417A
:100B300004469D4822681368A168034020690B435E
:100B400061690343E0690B43034313600026516866
:100B5000E06821F44051014351600025A3699149A7
:100B60008A421CBF206A03439768904827F4306785
:100B70003B4393608E4F8F4BBA4221D11B6803F0E9
:100B80000303032B29D8DFE803F0025F507101272C
:100B9000E169B1F5004F4FF6F07840F0D38067B1CE
:100BA000012F00F0A980022F00F0A980042F00F08F
:100BB000AB80082F00F0B180B7E0FFF7EDFDA5E0B6
:100BC0007D4FBA4223D11B6813F00C035FD0042B76
:100BD0003AD0082B29D00C2B48D010278A42D7D1E5
:100BE000390006D0022F09D0042F52D0082F53D03D
:100BF000D0E0FFF7D1FD002800F0CD80626802EB65
:100C00004201884202D31303834248D2C2E06B4FB1
:100C1000BA420CD11B6813F0300338D0102B13D01C
:100C2000202B02D0302B21D0D7E70227D6E7644F04
:100C3000BA420BD11B6813F0C00328D0402B03D05D
:100C4000802BF2D0C02BEEE70427C7E75D4FBA42F6
:100C50000ED11B6813F4407319D0B3F5807FF3D025
:100C6000B3F5007FE1D0B3F5407FB6D10827B5E7F3
:100C70008A42B2D11B6813F4406308D0B3F5806F89
:100C8000E2D0B3F5006FD0D0B3F5406FCBE70027CB
:100C9000A4E7FFF738FDAEE74FF40040AEE737B109
:100CA000022F0AD0042F0ED0082F16D01BE0FFF71A
:100CB00073FD00F08FF879410AE0434911EB5200CF
:100CC00045EB050104E0FFF71EFD00F083F86941E4
:100CD000002300F0ABF9064606E0530803F50003D5
:100CE000B3FBF2F600E00125A6F5407037498842D3
:100CF00050D22268D6604EE0FFF756FD06E06068ED
:100D0000334901EB50010CE0FFF7FDFC61684A0834
:100D100002EB4002B2FBF1F605E06068410801F524
:100D20008031B1FBF0F6B6B200E00125A6F110006B
:100D300040452FD208EA0601C6F34200014320686D
:100D4000C16028E047B1012F09D0022F0CD0042F39
:100D500008D0082F0ED015E0FFF71EFD04E0FFF7C6
:100D600023FD01E0FFF7CFFC616800EB5100B0FB11
:100D7000F1F605E06068410801F50041B1FBF0F6CD
:100D8000B6B200E00125A6F11000404502D221686C
:100D9000CE6000E001250020206660662846BDE8A0
:100DA000F081000000800040F369FFEF0024F400B0
:100DB00000380140881002400044004000480040D4
:100DC000004C004000500040000024F400FD0F00E3
:100DD0000048E8016268010E560816EB00207047D3
:100DE00090F82410CA0706D502685368816A23F474
:100DF00000330B43536090F824108A0706D502682D
:100E00005368C16A23F480330B43536090F8241075
:100E10004A0706D502685368016B23F480230B430D
:100E2000536090F824100A0706D502685368416B96
:100E300023F400430B43536090F82410CA0606D5F0
:100E400002689368816B23F480530B43936090F89E
:100E500024108A0606D502689368C16B23F40053F8
:100E60000B43936090F824104A0610D5026853682B
:100E7000016C23F480130B435360036CB3F5801FA4
:100E800005D15368416C23F4C0030B43536090F8C1
:100E900024100A0606D501684A68806C22F40022F4
:100EA00002434A607047F8B5044604F1700500201B
:100EB000E8606FF07E47FFF7FFFC06462068016898
:100EC0000A0708D50097334600224FF40011204648
:100ED00000F016F860B9206801684A070AD5009743
:100EE000334600224FF48001204600F009F808B193
:100EF0000320F2BD20206860A86000202870F2BDA9
:100F00002DE9F041069C05460E4690461F4628688E
:100F1000C1693140B1420CBF01200020404529D1B8
:100F200014F1010FF3D0FFF7C7FCC01B844200D3BC
:100F30005CB92868016821F4D071016000F01CF8E8
:100F4000002101700320BDE8F081286801684A078C
:100F5000DDD5C1690A05DAD54FF400610162286860
:100F6000026822F4D0720260002200F005F8C1602D
:100F70000270E7E70020E6E7286881684908490031
:100F8000816005F1700020214160816070470000A0
:100F9000224881B0816841F001018160816801F0DF
:100FA000010100910099026842F0805202600068DD
:100FB00000F080500090009801B0704710B586B0E6
:100FC00004461422002101A800F0B3F82168144857
:100FD000814220D11348416941F480414161416916
:100FE00001F4804100910099026842F0020202601F
:100FF000C021006800F002000090022200980A4818
:10100000019102920021039103220721059104928C
:1010100001A900F099F806B010BD00005810024078
:10102000003801404C10024000040048D3BBD9B145
:10103000B2F5803F5BD2022A1ED98C46B1FBF2F199
:1010400002FB11C31B0443EA1043B3FBF2FC02FB97
:101050001C3380B240EA0343B3FBF2F002FB1032D0
:1010600040EA0C4000237047022A05D98446B0FBB1
:10107000F2F002FB10C270474AB105D100F0010244
:1010800049085FEA3000704700220023704700F0F3
:1010900057B90B000200002100207047F7D300224F
:1010A00000237047904271EB030CF2D370B5B1FA94
:1010B00081F4B3FA83F52C1BA340C4F1200532FA66
:1010C00005F63343A2405FF00046E64002E05B08CD
:1010D0005FEA3202841A71EB030524BF20462946D9
:1010E0007641F4D302000B003000002170BD70B5D2
:1010F000B1FA81F4B2FA82F5C4F120046419B4F1B2
:101100002006DAD3B2405FF00044F440002502E04C
:1011100052085FEA3303C61A71EB020E24BF304651
:10112000714664416D41F3D302000B002000290099
:1011300070BD10B5044610460A460146204600F030
:1011400001F9204610BD00002DE9F84F4FF00009CD
:10115000724A734B4FF00F0805460E4634E0714C4F
:10116000A54214BF072406248C406F493C4341F834
:101170002C40C143146801EA040C7468E40348BFBE
:1011800040EA0C0CC2F800C0546801EA040C746810
:10119000A40348BF40EA0C0CC2F804C0946801EAFA
:1011A000040C7468E40248BF40EA0C0CC2F808C0A2
:1011B000D46801EA040C7168890248BF40EA0C0C4B
:1011C000C2F80CC009F10109316831FA09F000F0E8
:1011D0009780012404FA09F414EA0100F2D04FEADE
:1011E000490C032101FA0CF16FEA010E7168E44326
:1011F000012918BF022903D0112918BF122910D1C3
:10120000A968F7680EEA010107FA0CF73943A960EB
:1012100069687768C7F30017214007FA09F739436F
:101220006960716801F00307032F07D1EF6AC1F30A
:10123000C0013C4001FA09F10C43EC62E968B46872
:101240000EEA010104FA0CF42143E9604FEA890136
:101250007468022C18BF122C12D14FEAD90405EB86
:10126000840401F01C07D4F820A008FA07FB2AEA3E
:101270000B0AD6F810B00BFA07F747EA0A072762FD
:101280002C680EEA0407347904F0030404FA0CF421
:101290003C432C607468E40094D51C6844F001045D
:1012A0001C604FEA990C1C6804F00104009401F0E2
:1012B0000C01009C1C4C54F82C4008FA01F724EA5D
:1012C0000707B5F1904F08BF002418D0174CA5426E
:1012D00008BF012413D0164CA54208BF02240ED02B
:1012E000144CA54208BF032409D0134CA54208BFE3
:1012F000042404D0114CA5427FF431AF052433E718
:10130000BDE8F18F0AB1816170478162704742691F
:101310000A4201D081627047816170470004014038
:101320006010024000180048080001400004004816
:1013300000080048000C0048001000480014004855
:101340007047000062F30F2262F31F42401810F052
:10135000030308D0C91A1FD3DB0748BF00F8012DCB
:1013600028BF20F8022D130030B41446154610395A
:1013700028BF20E93C00FAD8490728BF20E90C0023
:1013800048BF40F8042D890028BF20F8022D48BF2F
:1013900000F8012D30BC7047C91818BF00F8012DA6
:1013A000CB0728BF00F8012D704700002DE9FC474E
:1013B000064600243068DFF814740105A04621D5E4
:1013C000706E70B1B0F5800F17D0B0F5000F03D07C
:1013D000B0F5400F09D013E03A6842F480323A6029
:1013E00004E0002100F07CF9044654B9F96F706EF6
:1013F00021F440010143F96704E000F06BF9F3E7E1
:101400000124A0463068C10421D5B06EA8B1B0F166
:10141000807F17D0B0F1007F03D0B0F1407F04D0BF
:1014200013E0396841F4803139607CB9F96FB06EEE
:1014300021F040710143F96709E0002100F050F903
:101440000446F2E700F046F9FAE70124A0463068C6
:1014500081032BD5F86CC1004FF000090AD4F86C59
:1014600040F08050F8644FF00109F86C00F08050B3
:1014700000900098DFF82854286840F480702860B5
:10148000FFF71AFA82462868C10500F18280FFF74B
:1014900013FAA0EB0A000328F5D30324A046B9F100
:1014A000000F03D0F86C20F08050F8643078C1074A
:1014B00005D5FA6FB06B920840EA8202FA6731787C
:1014C000880705D5F96FF06B21F00C010143F9672E
:1014D0003178480705D5F96F306C21F030010143B0
:1014E000F9673178080705D5F96F706C21F0C001F4
:1014F0000143F9673178C80605D5F96FB06C21F45E
:1015000040710143F9673178880605D5F96FF06CB1
:1015100021F440610143F9673168880505D5F96F09
:10152000F06D21F440210143F9673168480505D584
:10153000F96F306E21F440110143F96731784806A4
:1015400005D5F96F306D21F440510143F9673178C9
:10155000080605D5F96F706D21F440410143F96724
:101560003168C80505D5F96FB06D21F440310143EC
:10157000F9673168880446D5F96FF06E21F0406153
:101580000143F967F06EB0F1006F34D100F09DF8BF
:1015900039E0002C82D1DFF84443206810F4407019
:1015A0001CBFD6F8841088420BD02068216841F413
:1015B0008031216020F44070226822F48032226061
:1015C0002060C0070FD5FFF777F90546206881072F
:1015D00009D4FFF771F9401B41F289318842F5D3F4
:1015E0004FF003085BE72168D6F8840021F44071CE
:1015F0000143216053E7B0F1806F04D100F06FF830
:10160000010018BF80463068010314D5FA6F306FAF
:1016100022F040620243FA67306FB0F1006F02D1EE
:1016200000F053F807E0B0F1806F04D100F057F8F4
:10163000010018BF80463068410314D5FA6F706FFF
:1016400022F040620243FA67706FB0F1006F02D17E
:1016500000F03BF807E0B0F1806F04D100F03FF8F4
:10166000010018BF80463068410418D5FA6FB06F8A
:1016700022F040520243FA67B06FB0F1805F03D1AD
:10168000022100F02DF807E0B0F1005F07D1022140
:1016900006F1200000F09CF8010018BF8046306879
:1016A000010405D5FA6FF06F22F080420243FA6719
:1016B0003168C80306D5F96FD6F8800021F00041E3
:1016C0000143F9674046BDE8F687386840F480106A
:1016D00038607047002106F1200000F079B8012140
:1016E000301DFFE72DE9F04105467D4F28680C4687
:1016F000F968002611F0030F0DD0F96801F003011D
:10170000814231D180B3F8686968C0F30210401C8F
:1017100088420ED028E0012804D025D303281DD00C
:1017200018D321E03A6891071ED5FA68696800F07D
:10173000C9F8386820F0806000F0CCF8804638683E
:10174000010113D5FFF7B8F8A0EB08000328F6D382
:10175000032637E039684A05E7D405E039688A038B
:10176000E3D439684A03E0D401262BE0A9682CB9F8
:101770003A695C48EB6800F095F80FE0012C3A6993
:1017800009D12B69584802405B0842EA01215B1EDF
:1017900041EA435102E06B6900F08BF83961386827
:1017A00040F0806000F096F804463868010105D4E6
:1017B000FFF782F8001B0328F7D3C9E73869A96946
:1017C000084338613046BDE8F08100000C1002404B
:1017D0002DE9F0410646424F30680C46F968002575
:1017E00011F0030F0DD0F96801F00301814231D1EE
:1017F00080B3F8687168C0F30210401C88420ED0B4
:1018000028E0012804D025D303281DD018D321E0D7
:101810003A6891071ED5FA68716800F053F8386885
:1018200020F0805000F056F880463868810013D5CB
:10183000FFF742F8A0EB08000328F6D303252BE0BE
:1018400039684A05E7D405E039688A03E3D4396882
:101850004A03E0D401251FE0B1687A69002C04D165
:101860002048F36800F01EF802E0336900F021F828
:101870007961386840F0805000F02CF804463868F0
:10188000810005D4FFF718F8001B0328F7D3D5E72C
:1018900078697169084378612846BDE8F0810000E5
:1018A00000700040024042EA01211B0941EA434125
:1018B00070470E4802405B0842EA01215B1E41EA84
:1018C0004361704722F073021043491E40EA011041
:1018D000F86070473860FEF7EFBF000090100240DC
:1018E00000100240FF80FDFFFF809FFFFF80FFF997
:1018F00038B586B000F0B4F800F071F81422002179
:1019000001A8FFF716FC2B482B4C01682B4D41F02A
:1019100001010160026802F0010200920099026870
:1019200042F0020202600022006800F00200009013
:10193000202100984FF09040FFF7E4FC00224FF484
:1019400080412046FFF7DEFC202100F040F84FF0F8
:101950009040FFF7F9FB4FF4804100F038F8204643
:10196000FFF7F2FB164828604FF4E1310C2000220B
:1019700068616960AA60EA602A61AA61EA612A6214
:101980006A622846FFF736F800F01CF80A234B225B
:1019900005F180012846FFF76DF800F013F84FF4C9
:1019A00080412046FFF7B3FC4FF47A7000F068F8EE
:1019B000ECE700004C10024000040048000000204A
:1019C0000038014020214FF09040FFF7A0BC01916A
:1019D0000122002103910491029201A9704780B570
:1019E000B8B04422002105A8FFF7A3FB1422002170
:1019F0006846FFF79EFB8822002116A8FFF799FB97
:101A000001210B91002260210D910C920121109176
:101A10001191022228210F92129110200590072285
:101A2000022113921491159105A8FEF7ADFB0F202A
:101A3000032100900191002202920392049204215A
:101A40006846FEF7D6FD012100221691249216A8C1
:101A5000FFF7ACFC4FF40070FEF73AFF39B000BD61
:101A6000032010B5FEF77DFF0020FEF703FF0024E2
:101A7000002814BF0124FFF78BFA204610BD000098
:101A800038B50446FEF718FF14F1010F054602D0E1
:101A9000044988680419FEF70FFF401BA042FAD3DF
:101AA00031BD00BFCC0000200E48016841F4700138
:101AB000016000220C49086840F0010008608A605B
:101AC0004FF480520B68094803400B60CA60002045
:101AD0000B68074A23F480230B6088614FF0006194
:101AE0001160704788ED00E000100240FFFFF6EA49
:101AF00008ED00E000000000000000000102030407
:101B00000607080930B5016884684218416802EB8D
:101B10005103C90703D54C4401E0491C05D19A4241
:101B20000AD012F9011B12F8015B002904F8015BCD
:101B3000F3D4491EF7D5F2E70C3030BDA086010082
:101B4000400D0300801A060000350C0040420F00D3
:101B500080841E0000093D0000127A000024F40079
:101B600000366E010048E801006CDC0210B5074940
:101B700079441831064C7C44163404E00A68081D88
:101B8000114488470146A142F8D110BD2C00000045
:101B9000380000004EF68851CEF20001086840F48B
:101BA00070000860BFF34F8FBFF36F8F4FF000706E
:101BB000E1EE100A704700004DFFFFFFDC0100005E
:101BC000B80000000000002000F00DF8002801D04F
:101BD000FFF7CCFFAFF300800020AFF30080FFF7EA
:101BE00087FE00F002F80120704700F001B8000005
:101BF0000746384600F002F8FBE7000080B5AFF377
:101C00000080024A11001820ABBEFBE7260002004C
:101C10007047FEE7FEE7FEE7FEE770477047704754
:101C200000F000B802490A68886882180A607047A4
:101C3000CC0000200148804701480047A91A00084D
:101C4000451C0008AFF30080FFF7A4FFFFF7BCFFBF
:101C50000000000001020304FFF7FEBFFFF7FEBF14
:101C6000FFF7FEBFFFF7FEBFFFF7FEBFFFF7FEBFA8
:101C7000FFF7FEBFFFF7FEBFFFF7FEBFFFF7FEBF98
:101C8000FFF7FEBFFFF7FEBFFFF7FEBFFFF7FEBF88
:101C9000FFF7FEBFFFF7FEBFFFF7FEBFFFF7FEBF78
:101CA000FFF7FEBFFFF7FEBFFFF7FEBFFFF7FEBF68
:101CB000FFF7FEBFFFF7FEBFFFF7FEBFFFF7FEBF58
:101CC000FFF7FEBFFFF7FEBFFFF7FEBFFFF7FEBF48
:101CD000FFF7FEBFFFF7FEBFFFF7FEBFFFF7FEBF38
:101CE000FFF7FEBFFFF7FEBFFFF7FEBFFFF7FEBF28
:101CF000FFF7FEBFFFF7FEBFFFF7FEBFFFF7FEBF18
:101D0000FFF7FEBFFFF7FEBFFFF7FEBFFFF7FEBF07
:101D1000FFF7FEBFFFF7FEBFFFF7FEBFFFF7FEBFF7
:101D2000FFF7FEBFFFF7FEBFFFF7FEBFFFF7FEBFE7
:101D3000FFF7FEBFFFF7FEBFFFF7FEBFFFF7FEBFD7
:101D4000FFF7FEBFFFF7FEBFFFF7FEBFFFF7FEBFC7
:101D5000FFF7FEBFFFF7FEBFFFF7FEBFFFF7FEBFB7
:101D6000FFF7FEBFFFF7FEBFFFF7FEBFFFF7FEBFA7
:101D7000FFF7FEBFFFF7FEBFFFF7FEBFFFF7FEBF97
:101D8000FFF7FEBFFFF7FEBFFFF7FEBFFFF7FEBF87
:101D9000FFF7FEBFFFF7FEBF81004500454D4253F0
:101DA00059533331303A20555720546573742041CC
:101DB00070706C69636174696F6E202D2041646975
:101DC00074796127732053544D33324C34373520A6
:101DD000496F54206E6F646520697320616C697669
:101DE00065FD21010D0AFA000010FD000001FC0054
:041DF00002093D00A7
:0400000508001C458E
:00000001FF
