:020000040800F2
:10000000B004002015210008ED200008EF200008B2
:10001000F1200008F3200008F5200008000000008F
:10002000000000000000000000000000F7200008B1
:10003000F920000800000000FB200008FD20000857
:100040003D21000841210008452100084921000800
:100050004D210008512100085521000859210008B0
:100060005D21000861210008652100086921000860
:100070006D21000871210008752100087921000810
:100080007D210008812100088521000889210008C0
:100090008D21000891210008952100089921000870
:1000A0009D210008A1210008A5210008A921000820
:1000B000AD210008B1210008B5210008B9210008D0
:1000C000BD210008C1210008C5210008C921000880
:1000D000CD210008D1210008D5210008D921000830
:1000E000DD210008E1210008E5210008E9210008E0
:1000F000ED210008F1210008F5210008F921000890
:10010000FD2100080122000805220008092200083C
:100110000D220008112200081522000819220008EB
:100120001D2200082122000825220008292200089B
:100130002D2200083122000835220008392200084B
:100140003D220008412200084522000849220008FB
:100150004D220008512200085522000859220008AB
:100160005D2200086122000865220008692200085B
:100170006D2200087122000800000000000000004D
:10018000752200087922000810B50400002C01D166
:10019000012035E094F83D00002805D1002084F8C6
:1001A0003C00200000F017FD022084F83D00211DD6
:1001B000206800F0BBFA012084F84800012084F890
:1001C0003E00012084F83F00012084F84000012017
:1001D00084F84100012084F84200012084F84300A3
:1001E000012084F84400012084F84500012084F8AF
:1001F0004600012084F84700012084F83D000020DB
:1002000010BD10B50400002C01D1012035E094F898
:100210003D00002805D1002084F83C00200000F0BB
:1002200049FD022084F83D00211D206800F07EFA7F
:10023000012084F84800012084F83E00012084F861
:100240003F00012084F84000012084F84100012093
:1002500084F84200012084F84300012084F844001F
:10026000012084F84500012084F84600012084F82C
:100270004700012084F83D00002010BD70B5050046
:100280000C00002C02D195F83E0015E0042C02D1A0
:1002900095F83F0010E0082C02D195F840000BE0E3
:1002A0000C2C02D195F8410006E0102C02D195F8F3
:1002B000420001E095F84300012801D0012089E0C7
:1002C000002C04D1022085F83E00C0B21FE0042CAF
:1002D00004D1022085F83F00C0B218E0082C04D1F8
:1002E000022085F84000C0B211E00C2C04D102209D
:1002F00085F84100C0B20AE0102C04D1022085F834
:100300004200C0B203E0022085F84300C0B20122DF
:100310002100286800F019FCDFF8A4112868884241
:1003200013D02868DFF89C2190420ED02868DFF8AF
:100330009821904209D02868DFF8A021904204D08B
:100340002868DFF89421904201D1012000E00020CC
:10035000C0B2002805D02868406C50F400402A68DC
:100360005064286888421CD02868B0F1804F18D0AB
:100370002868DFF85811884213D02868DFF8501138
:1003800088420ED02868DFF84C11884209D02868CE
:10039000DFF83011884204D02868DFF82C11884239
:1003A00011D128688168DFF8380101400E00062E5F
:1003B0000FD0B6F5803F0CD02868006850F00100DF
:1003C0002968086005E02868006850F00100296885
:1003D0000860002070BD38B505000C000022210027
:1003E000286800F0B2FB2868DFF8D410884213D0E8
:1003F0002868DFF8D01088420ED02868DFF8C810CF
:10040000884209D02868DFF8D410884204D02868D0
:10041000DFF8C410884201D1012000E00020C0B202
:10042000002811D02868006A41F2111108420BD14E
:100430002868006A40F24441084205D12868406CAF
:1004400030F40040296848642868006A41F21111BC
:1004500008420BD12868006A40F24441084205D1A5
:10046000286800684008400029680860002C04D112
:10047000012085F83E00C0B21FE0042C04D1012009
:1004800085F83F00C0B218E0082C04D1012085F89F
:100490004000C0B211E00C2C04D1012085F84100CD
:1004A000C0B20AE0102C04D1012085F84200C0B28D
:1004B00003E0012085F84300C0B2002032BD0000F7
:1004C000002C014000340140004001400004004085
:1004D00000080040000C004000480140004401407A
:1004E0000700010070B504000D00160094F83C00F0
:1004F000012801D10220A1E0012084F83C00300055
:1005000000280AD004281FD0082835D00C284AD04B
:10051000102860D0142875D08CE02900206800F0E5
:1005200068F92068806950F00800216888612068B7
:10053000806930F004002168886120688169286939
:1005400001432068816175E02900206800F09FF96F
:100550002068806950F400602168886120688069A3
:1005600030F480602168886120688069296950EAD8
:100570000120216888615DE02900206800F0CFF942
:100580002068C06950F008002168C8612068C0690F
:1005900030F004002168C8612068C16928690143FE
:1005A0002068C16146E02900206800F0F7F9206862
:1005B000C06950F400602168C8612068C06930F4E7
:1005C00080602168C8612068C069296950EA0120FB
:1005D0002168C8612EE02900206800F00EFA20682A
:1005E000406D50F00800216848652068406D30F08B
:1005F0000400216848652068416D2869014320682E
:10060000416517E02900206800F023FA2068406D5A
:1006100050F40060216848652068406D30F48060C7
:10062000216848652068406D296950EA01202168E9
:100630004865FFE7002084F83C00002070BD70B5DD
:1006400004000D0094F83C00012801D102206CE068
:10065000012084F83C00022084F83D002068866870
:10066000DFF84804064036F47F4620688660286834
:1006700000284ED010284CD020284AD0302848D00E
:1006800040283CD0502826D060282ED0702807D093
:10069000B0F5805F03D0B0F5005F0FD03EE03DE0E5
:1006A000EB686A68A968206800F043FA20688068EF
:1006B00050F077000600206886602FE0EB686A68DB
:1006C000A968206800F035FA2068806850F48040FE
:1006D0002168886022E0EA686968206800F0FCF917
:1006E0005021206800F01DFA18E0EA686968206867
:1006F00000F004FA6021206800F013FA0EE0EA68C6
:100700006968206800F0E8F94021206800F009FAE3
:1007100004E02968206800F004FAFFE7012084F86B
:100720003D00002084F83C00002070BD10B4046837
:10073000DFF87C33984212D0B0F1804F0FD0DFF851
:10074000742390420BD0DFF87023904207D0DFF87B
:100750006C23904203D0DFF86823904203D134F039
:1007600070044A68144398421ED0B0F1804F1BD0E9
:10077000DFF84023904217D0DFF83C23904213D09B
:10078000DFF8382390420FD0DFF8342390420BD0AB
:10079000DFF83023904207D0DFF82C23904203D0BB
:1007A000DFF82823904203D134F44074CA6814431C
:1007B00034F080044A69144304608A68C2620A689B
:1007C000826298420FD0DFF8F82290420BD0DFF817
:1007D000F422904207D0DFF8F022904203D0DFF8F5
:1007E000EC22904201D10A6902630122426110BCED
:1007F000704770B4026A520852000262056A436888
:100800008469DFF8CC221440A408A4000A681443C9
:1008100035F002058A681543DFF89462B0420FD0C4
:10082000DFF89C2290420BD0DFF89822904207D04C
:10083000DFF89422904203D0DFF89022904205D155
:1008400035F00805CA68154335F00405B0420FD0ED
:10085000DFF86C2290420BD0DFF86822904207D07C
:10086000DFF86422904203D0DFF86022904207D183
:1008700033F4807333F400734A6913438A69134372
:10088000436084614A684263056270BC704770B41B
:10089000026A32F010020262056A43688469DFF876
:1008A0003422144034F440740A6854EA022435F0C7
:1008B00020058A6855EA0215DFF8F421904203D03A
:1008C000DFF8FC61B04206D135F08005CE6855EA0C
:1008D000061535F0400590420FD0DFF8E421904234
:1008E0000BD0DFF8E021904207D0DFF8DC21904206
:1008F00003D0DFF8D821904209D133F4806333F478
:1009000000634A6953EA82038A6953EA82034360B7
:1009100084614A688263056270BC7047000070B4ED
:10092000026A32F480720262056A4368C469684AE6
:100930001440A408A4000A68144335F400758A68BA
:1009400055EA02255A4A904202D05D4EB04206D185
:1009500035F40065CE6855EA062535F48065904289
:100960000BD0574A904208D0564A904205D0564A7A
:10097000904202D0554A904209D133F4805333F467
:1009800000534A6953EA02138A6953EA0213436027
:10099000C4614A68C263056270BC704730B4026AC1
:1009A00032F480520262056A4368C469494A1440BD
:1009B00034F440740A6854EA022435F400558A6815
:1009C00055EA02353A4A90420BD03D4A904208D04F
:1009D0003C4A904205D03C4A904202D03B4A904269
:1009E00004D133F480434A6953EA82134360C461FB
:1009F0004A680264056230BC704730B4026A32F45F
:100A000080320262056A4368446D314A14400A68C4
:100A1000144335F400358A6855EA0245244A904269
:100A20000BD0274A904208D0264A904205D0264A49
:100A3000904202D0254A904204D133F480334A696F
:100A400053EA0223436044654A688265056230BC0C
:100A5000704730B4026A32F480120262056A436859
:100A6000446D1C4A14400A6854EA022435F4001507
:100A70008A6855EA02550E4A90420BD0104A9042BD
:100A800008D0104A904205D00F4A904202D00F4A37
:100A9000904204D133F480234A6953EA82234360AD
:100AA00044654A68C265056230BC704788FFFEFF36
:100AB000002C01400004004000080040000C0040F1
:100AC0000034014000400140004401400048014022
:100AD0008FFFFEFFFF8FFFFE10B4046A036A5B08FE
:100AE0005B000362836933F0F00353EA021334F0CE
:100AF0000A040C438361046210BC704710B4036A9B
:100B000033F0100303628369046A33F4704353EAD9
:100B1000023334F0A00454EA01148361046210BC6F
:100B20007047836833F0700351F00702134383600A
:100B3000704730B4846834F47F4452EA010555EAC2
:100B400003252C43846030BC704730B4012411F07D
:100B50001F0314FA03F3046A9C430462046A11F04D
:100B60001F0512FA05F52C43046230BC704730B4FF
:100B7000002513E050F8042BD30744BFA9F101036B
:100B80009A18091F042942F8045BFAD213468C070D
:100B900044BF15809B1CC90748BF1D7050F8041B3B
:100BA0000029E7D130BC704781B03D48016851F061
:100BB00001010160006810F00100009000983948C0
:100BC000016851F080510160006810F08050009081
:100BD000009801B0704781B00168B1F1804F0AD12F
:100BE00030490A6852F001020A60096811F00101F7
:100BF000009100990DE001682B4A914209D12849E2
:100C00000A6852F480320A60096811F48031009158
:100C1000009901B0704710B586B00400142200217D
:100C2000684600F048F82068B0F1804F19D11F489D
:100C3000016851F001010160006810F001000590A9
:100C400005982020009002200190002002900020B2
:100C500003900120049069465FF0904000F04CF84A
:100C60001CE020681049884218D11048016851F0F2
:100C700002010160006810F00200059005984FF431
:100C800080400090022001900020029000200390FC
:100C90000E2004906946064800F02EF806B010BDFC
:100CA0006010024058100240004001404C100240C9
:100CB00000040048704710B5044610460A46014635
:100CC000204600F033F9204610BD30B40EE0026833
:100CD000436802440830DC0744BFA9F10104E3186B
:100CE00052F8045B43F8045B091FF9D150F8041B68
:100CF0000029ECD130BC7047F8B403000025086827
:100D0000E840002800F0F88001260F6816FA05F088
:100D100007403A00002A00F0ED804868012808D01A
:100D20004868022805D04868112802D0486812286F
:100D300021D19F685FF0030C2800C0B240001CFA6C
:100D400000FC37EA0C07D1F80CC02800C0B2400004
:100D50001CFA00FC5CEA07079F60D3F804C016FA8F
:100D600005F03CEA000C4868C0F30010A84050EAC7
:100D70000C0C64465C60087910F00300032809D16C
:100D8000D86AAE40B0434E68C6F3C006AE403043AA
:100D90000400DC62DE6803272800C0B2400017FAB6
:100DA00000F08643D1F808C02800C0B240001CFA09
:100DB00000FC5CEA0606DE604868022802D048684B
:100DC00012281ED12800C00803EB8000046A5FF0DF
:100DD0000F0C15F00700C0B280001CFA00FC34EACA
:100DE0000C04D1F810C015F00700C0B280001CFA46
:100DF00000FC5CEA040426002800C00803EB800025
:100E000006621C682800C0B240008740BC430F79CE
:100E100017F003072800C0B2400087403C431C6025
:100E20004868C00066D53548066856F00106066079
:100E3000006810F0010000900098314F28008008F1
:100E400057F820605FF00F0C15F00300C0B280006F
:100E50001CFA00FC36EA0C06B3F1904F01D10024D5
:100E60001EE02848834201D1012419E0264883422C
:100E700001D1022414E02548834201D103240FE06C
:100E80002348834201D104240AE02248834201D14D
:100E9000052405E02048834201D1062400E0072410
:100EA00015F00300C0B2800084402643280080086B
:100EB00047F82060194C206890434F68FF0300D525
:100EC00010432060164E346894434F68BF0300D52A
:100ED00014433460134E306890434F68FF0200D5CE
:100EE00010433060104E346894434F68BF0200D501
:100EF000144334606D1C02E7F1BC7047601002407F
:100F0000080001400004004800080048000C0048A8
:100F10000010004800140048001800480004014078
:100F200004040140080401400C04014062F30F2254
:100F300062F31F42401810F0030308D0C91A1FD3F0
:100F4000DB0748BF00F8012D28BF20F8022D130051
:100F500030B414461546103928BF20E93C00FAD8B1
:100F6000490728BF20E90C0048BF40F8042D89003C
:100F700028BF20F8022D48BF00F8012D30BC704773
:100F8000C91818BF00F8012DCB0728BF00F8012DA4
:100F9000704700002DE9FE4F0500002D01D1012012
:100FA0001BE3DFF86098D9F8004014F00C04DFF878
:100FB000EC88D8F8007017F003072878C00640F1D5
:100FC000C680002C03D00C2C7AD1012F78D1DFF809
:100FD00030A8DAF80000800704D5A869002801D1FC
:100FE0000120FAE2DAF80000000704D5DAF8000080
:100FF00010F0F00005E0DFF8A8080068000910F024
:10100000F000296A88421ED2286A00F001FC0028FC
:1010100001D00120E1E2DAF8000050F00800CAF83F
:101020000000DAF8001031F0F001286A0143CAF834
:101030000010DFF87008016831F47F41EA6951EA75
:10104000022101601FE0DAF8000050F00800CAF841
:101050000000DAF8001031F0F001286A0143CAF804
:101060000010DFF84008016831F47F41EA6951EA75
:1010700002210160002C06D1286A00F0C9FB00287B
:1010800001D00120A9E200F050FBDFF81C18D9F8CC
:101090000020C2F30312895C11F01F01C840DFF881
:1010A00068170860DFF86407006800F011FC8DF82D
:1010B00000009DF80000002849D09DF800008CE257
:1010C000A86900282DD0DFF83897D9F8000050F033
:1010D0000100C9F8000000F02BFC0600D9F8000060
:1010E000800706D400F024FC801B0328F6D30320DD
:1010F00073E2D9F8000050F00800C9F80000D9F8F0
:10110000001031F0F001286A0143C9F80010DFF83F
:101110009407016831F47F41EA6951EA02210160D4
:1011200015E0DFF8DC96D9F8000040084000C9F867
:10113000000000F0FDFB0600D9F80000800706D58E
:1011400000F0F6FB801B0328F6D3032045E2287845
:10115000C00754D5082C03D00C2C0BD1032F09D178
:10116000DFF89C060068800349D56868002846D1EE
:10117000012032E26868B0F5803F06D1DFF88006D2
:10118000016851F48031016018E06868B0F5A02F63
:101190000AD1DFF86C06016851F480210160016812
:1011A00051F48031016009E0DFF85406016831F440
:1011B00080310160016831F4802101606868002895
:1011C0000ED000F0B5FB0600DFF83406006880039F
:1011D00015D400F0ADFB801B6528F5D30320FCE19E
:1011E00000F0A6FB0600DFF818060068800306D5AD
:1011F00000F09EFB801B6528F5D30320EDE12878E5
:10120000800752D5042C03D00C2C15D1022F13D1FA
:10121000DFF8EC050068400504D5E868002801D136
:101220000120DAE1DFF87C06016831F0F8512A6923
:1012300051EA0261016038E0E86800281FD0DFF859
:10124000C095D9F8000050F48070C9F8000000F093
:101250006FFB0600D9F80000400506D400F068FBDB
:10126000801B0328F6D30320B7E1DFF838060168B6
:1012700031F0F8512A6951EA0261016015E0DFF8A6
:101280008095D9F8000030F48070C9F8000000F0B3
:101290004FFB0600D9F80000400506D500F048FBDA
:1012A000801B0328F6D3032097E1287800072ED56A
:1012B0006869002815D0DFF8E895D9F8000050F0EB
:1012C0000100C9F8000000F033FB0600D9F8000067
:1012D00080071CD400F02CFB801B0328F6D30320CE
:1012E0007BE1DFF8BC95D9F8000040084000C9F860
:1012F000000000F01DFB0600D9F80000800706D5AD
:1013000000F016FB801B0328F6D3032065E1287844
:10131000400740F181805FF00009DFF890A5DAF81E
:101320000000C0000DD4DAF8000050F08050CAF878
:101330000000DAF8000010F08050019001980120C0
:101340008146DFF86CB5DBF80000C00513D4DBF88C
:10135000000050F48070CBF8000000F0E9FA0600BD
:10136000DBF80000C00506D400F0E2FA801B032879
:10137000F6D3032031E1A868012806D1DFF834054F
:10138000016851F00101016017E0A86805280AD141
:10139000DFF82005016851F004010160016851F097
:1013A0000101016009E0DFF80C0501684908490006
:1013B0000160016831F004010160A868002810D0C4
:1013C00000F0B6FA0600DFF8EC040068800719D4D4
:1013D00000F0AEFA801B41F289318842F3D303203A
:1013E000FBE000F0A5FA0600DFF8C80400688007FB
:1013F00008D500F09DFA801B41F289318842F3D371
:101400000320EAE04846C0B2012805D1DAF800001E
:1014100030F08050CAF80000A86A002800F0DC8094
:10142000A86A022840F0AC80D8F80000070017F046
:101430000300E96A884226D117F07000296B491E23
:10144000B0EB011F1FD117F4FE40696BB0EB012F09
:1014500019D1A86B072801D1002000E0012017F462
:10146000003181420FD117F4C000E96B4908491ED1
:10147000B0EB415F07D117F0C060296C4908491EE5
:10148000B0EB416F5CD00C2C58D0DFF874A3DAF8C5
:101490000000400103D4DAF80000C00001D50120AB
:1014A0009BE0DAF8000030F08070CAF8000000F02D
:1014B0003FFA8146DAF80000800107D500F038FADB
:1014C000B0EB09000328F5D3032086E0D8F800101C
:1014D000DFF8E4030140E86A0143286B401E51EA4B
:1014E0000011686B51EA0021E86B4008401E51EA88
:1014F0004051286C4008401E51EA4061A86B000929
:1015000051EA4041C8F80010DAF8000050F080704D
:10151000CAF80000D8F8000050F08070C8F8000049
:1015200000F006FA0600DAF80000800154D400F05A
:10153000FFF9801B0328F6D303204EE001204CE086
:10154000DFF8BC92D9F80000800145D4D9F800003A
:1015500050F08070C9F80000D8F8000050F080709A
:10156000C8F8000000F0E4F90600D9F80000800196
:1015700032D400F0DDF9801B0328F6D303202CE0E1
:101580000C2C27D0DFF87892D9F8000030F080706A
:10159000C9F80000D9F8000010F0205F05D1D8F894
:1015A000000080088000C8F80000D8F80010DFF8BC
:1015B0000C030140C8F8001000F0BAF90600D9F891
:1015C0000000800108D500F0B3F9801B0328F6D392
:1015D000032002E0012000E00020BDE8FE8F2DE99D
:1015E000F04104000D00002C01D101209BE0DFF848
:1015F000D072386810F00700A8420BD23868C008D3
:10160000C00028433860386810F00700A84201D0B5
:10161000012088E02078C00742D56068032806D101
:10162000DFF8DC01006880011CD401207BE06068E9
:10163000022806D1DFF8C8010068800312D4012017
:1016400071E06068002806D1DFF8B4010068800707
:1016500008D4012067E0DFF8A8010068400501D444
:10166000012060E0DFF89C81D8F80010890889002B
:1016700060680143C8F8001000F05AF90600D8F875
:10168000000010F00C006168B0EB810F08D000F092
:101690004FF9801B41F289318842F0D3032042E0A8
:1016A0002078800706D557490A6832F0F002A06812
:1016B00002430A60386810F0070085420BD2386890
:1016C000C008C00028433860386810F00700A842FE
:1016D00001D0012027E02078400706D549490A6853
:1016E00032F4E062E06802430A602078000707D520
:1016F0004448016831F46051226951EAC201016035
:1017000000F013F8DFF8A0113E4A1268C2F303128A
:10171000895C11F01F01C8403B4908603B480068E4
:1017200000F0D6F8C0B2BDE8F0812DE9F041002606
:1017300000203449096811F00C01DFF860C1DCF8C1
:10174000007017F00307002903D00C291AD1012FCC
:1017500018D1DFF8ACE0DEF800805FEA087806D444
:10176000DFF83CE1DEF800E0CEF3032E03E0DEF824
:1017700000E0CEF3031E534E56F82E6000290CD124
:1017800030000AE0042903D1DFF83CE1704604E0B0
:10179000082902D1DFF834E170460C292DD1DCF89C
:1017A00000E01EF0030E73469E46BEF1020F03D00A
:1017B000BEF1030F03D005E0DFF80CE103E0DFF832
:1017C0000CE100E0B646DCF80020C2F30212521C25
:1017D0001500DCF80020C2F3062202FB0EFEBEFB61
:1017E000F5F2DCF800C0CCF3416C1CF1010C5FEAAF
:1017F0004C0C6446B2FBF4FC6046BDE8F08100008E
:1018000000100240081002400400002000000020E8
:101810007CB504000025254E3068C00003D500F0DB
:101820008DF801000FE0306850F080503060306873
:1018300010F080500090009800F080F801003068AF
:1018400030F080503060B1F5007F09D1812C15D384
:10185000A12C02D30220050010E0012005000DE0BC
:10186000812C02D30320050008E0802C02D1022045
:10187000050003E0702C01D101200500104802682A
:10188000D208D2002A430260006810F00700A84284
:1018900001D0012000E0002076BD00000C100240C5
:1018A0009410024004100240042100085810024025
:1018B00000700040901002408C809DF9FFFFEEFE0A
:1018C00000200240102000080024F40000127A00DA
:1018D00038B5040000251349087800281DD04FF4BE
:1018E0007A700978B0FBF1F00F490968B1FBF0F0AC
:1018F00000F0EFF800280DD1102C08D200222100B2
:101900005FF0FF3000F0D0F80848046007E00120E5
:10191000050004E00120050001E001200500280089
:10192000C0B232BD080000200400002000000020EA
:1019300001480068704700BFA8000020DFF8800061
:10194000006810F4C06070470200B2F5007F26D135
:10195000DFF86C00036813F4C063B3F5007F2CD08C
:10196000036833F4C06353F400730360DFF854007A
:10197000036832204343DFF85000B3FBF0F0401C13
:101980000100DFF8480003685B0503D5002901D09A
:10199000491EF6E7006840050FD503200EE0DFF88A
:1019A0002000036813F4C063B3F5806F05D00368AB
:1019B00033F4C06353F48063036000207047000079
:1019C000007000400400002040420F0014700040EE
:1019D00010B410F00703DFF8084122684FF6FF014A
:1019E0000A40DFF8001151EA03210A43226010BCCB
:1019F0007047DFF8EC000068C0F302207047000079
:101A000010B4020052B2002A05D40A01364B040079
:101A100064B21A5508E00A01344B040064B214F0B1
:101A20000F04234403F8042C10BC704770B4030067
:101A300013F00704D4F10700052801D3042001E0C6
:101A4000D4F10700251D072D01D2002500E0E51E79
:101A5000012616FA00F0401E0140A94016FA05F5CD
:101A60006D1E2A401143080070BC704710B5040079
:101A7000601EB0F1807F01D301200EE0601E1C4982
:101A800008600F215FF0FF30FFF7BAFF002019490F
:101A90000860072018490860002010BD10B5040038
:101AA0002000FFF795FF10BD2DE9F04104000D0067
:101AB00016000027FFF79DFF8046320029004046B0
:101AC000FFF7B4FF0100200040B2FFF799FFBDE827
:101AD000F08110B504002000FFF7C8FF10BD000022
:101AE0000CED00E00000FA0500E400E018ED00E075
:101AF00014E000E018E000E010E000E010B500F0B5
:101B000093F900F025F800F035F900F0B5F800F091
:101B100058F80021BE48FEF7B1FB0021BD48FEF792
:101B2000ADFB052000F092F9BB4C2068801C2060C2
:101B3000206840F2D171884201DB002020602068DB
:101B400080B200F02DF9206880B200F041F9E8E79A
:101B500080B596B04422002105A8FFF7ACF8142206
:101B600000216846FFF7A7F81020059001200B9090
:101B700000200C9060200D9000200F9005A8FFF72A
:101B800009FA002801D000F04DF90F200090002044
:101B9000019000200290002003900020049000217A
:101BA0006846FFF71CFD002801D000F03BF94FF418
:101BB0000070FFF7C9FE002801D000F033F917B01C
:101BC00000BD10B58EB0102200210AA8FFF773F8EF
:101BD0000C2200216846FFF76EF81C22002103A8A2
:101BE000FFF769F88B4C5FF0804020602720606031
:101BF0000020A06040F2CF70E06000202061002053
:101C0000A0612000FEF7C0FA002801D000F00AF918
:101C10004FF480500A900AA92000FEF710FD00281A
:101C200001D000F0FFF82000FEF7EBFA002801D009
:101C300000F0F8F800200090002002906946200093
:101C400000F018F9002801D000F0ECF860200390B3
:101C5000002004900020059000200790002203A996
:101C60002000FEF73FFC002801D000F0DBF8200048
:101C7000FEF7D1FF0EB010BD18B599B010220021AB
:101C80000AA8FFF718F80C2200216846FFF713F89E
:101C90001C22002103A8FFF70EF82C2200210EA819
:101CA000FFF709F85A4C5D4820602720606000204B
:101CB000A06040F2CF70E0600020206100206061F1
:101CC0000020A0612000FEF75FFA002801D000F09C
:101CD000A9F84FF480500A900AA92000FEF7AFFC43
:101CE000002801D000F09EF82000FEF78AFA0028B4
:101CF00001D000F097F80020009000200290694683
:101D0000200000F0B7F8002801D000F08BF8602028
:101D100003900020049000200590002006900020F1
:101D200007900020089000200990002203A92000BD
:101D3000FEF7D8FB002801D000F074F800200E90C8
:101D400000200F9000201090002011900020129091
:101D50004FF400501390002018900EA9200000F0BE
:101D6000D7F8002801D000F05DF82000FEF753FFFF
:101D70001AB010BD81B02A48016851F0010101601C
:101D8000016811F0010100910099016851F0020110
:101D90000160006810F002000090009801B07047E8
:101DA00030B587B0040060200090200080B2019020
:101DB0000020029000200490154D00226946280062
:101DC000FEF790FB00212800FEF758FA07B030BD5F
:101DD00030B587B004000F4D00212800FEF7FBFA54
:101DE0002800FEF70EFA60200090200080B20190DB
:101DF0000020029000200490002269462800FEF78F
:101E000071FB00212800FEF739FA07B030BD000051
:101E1000580000200C000020A400002000400140D9
:101E20004C1002407047000010B500240320FFF75B
:101E300035FE0020FFF74CFD002802D001200400F1
:101E400001E0FEF7B1FE2000C0B210BD70B5040085
:101E5000FFF76EFD0500260016F1010F02D00448C1
:101E600000783618FFF764FD401BB042FAD370BD0E
:101E70000800002070B4020092F83C00012801D153
:101E8000022043E0012082F83C00022082F83D005D
:101E90001068436810688468464D1068A84203D0F3
:101EA0001068424EB04203D133F4700348680343D4
:101EB00033F0700308680343106843601068A84259
:101EC00017D01068B0F1804F13D010683A4DA84277
:101ED0000FD01068394DA8420BD01068324DA8427F
:101EE00007D01068314DA84203D01068304DA84289
:101EF00005D134F0800488680443106884600120B0
:101F000082F83D00002082F83C00002070BC704741
:101F100010B40200002392F83C00012801D10220F5
:101F20003EE0012082F83C001B0A1B02C868034304
:101F300033F440738868034333F480634868034391
:101F400033F400630868034333F4805308690343A0
:101F500033F400534869034333F48043886A0343EE
:101F600033F47023886953EA00431068114CA0428F
:101F700003D010680D4CA0420CD133F47003486AB2
:101F800053EA005333F08073C869034333F000739E
:101F9000086A034310684364002082F83C00002074
:101FA00010BC704700000000000C004000340140ED
:101FB00000400140002C01400004004000080040A7
:101FC0000D49086850F00100086000200B4A1060BD
:101FD0000A680B4802400A604FF48050094A1060BA
:101FE000086830F4802008600020074908605FF02E
:101FF0000060064908607047001002400810024067
:10200000FFFFF6EA0C1002401810024008ED00E055
:10201000A0860100400D0300801A060000350C0068
:1020200040420F0080841E0000093D0000127A002B
:102030000024F40000366E010048E801006CDC0268
:1020400010B5074979441831064C7C44163404E035
:102050000A68081D114488470146A142F8D110BD05
:10206000080000002800000007EBFFFFA0000000B0
:102070000C0000200000000053ECFFFF0C000000EB
:10208000B0000000000000200000000000F00DF88B
:10209000002801D0FFF7D4FFAFF300800020AFF39A
:1020A0000080FFF72BFD00F002F80120704700F0E0
:1020B00001B800000746384600F002F8FBE70000D0
:1020C00080B5AFF30080024A11001820ABBEFBE7D9
:1020D0002600020003480168034A1278891801604B
:1020E000704700BFA8000020080000207047FEE7EE
:1020F000FEE7FEE7FEE770477047704780B5FFF7E1
:10210000E9FF01BD0000000000000000010203041F
:10211000060708090148804701480047C11F000819
:1021200025210008AFF30080AFF30080FFF7AEFF7A
:102130001000000000093D0001000000FFF7FEBF95
:10214000FFF7FEBFFFF7FEBFFFF7FEBFFFF7FEBFC3
:10215000FFF7FEBFFFF7FEBFFFF7FEBFFFF7FEBFB3
:10216000FFF7FEBFFFF7FEBFFFF7FEBFFFF7FEBFA3
:10217000FFF7FEBFFFF7FEBFFFF7FEBFFFF7FEBF93
:10218000FFF7FEBFFFF7FEBFFFF7FEBFFFF7FEBF83
:10219000FFF7FEBFFFF7FEBFFFF7FEBFFFF7FEBF73
:1021A000FFF7FEBFFFF7FEBFFFF7FEBFFFF7FEBF63
:1021B000FFF7FEBFFFF7FEBFFFF7FEBFFFF7FEBF53
:1021C000FFF7FEBFFFF7FEBFFFF7FEBFFFF7FEBF43
:1021D000FFF7FEBFFFF7FEBFFFF7FEBFFFF7FEBF33
:1021E000FFF7FEBFFFF7FEBFFFF7FEBFFFF7FEBF23
:1021F000FFF7FEBFFFF7FEBFFFF7FEBFFFF7FEBF13
:10220000FFF7FEBFFFF7FEBFFFF7FEBFFFF7FEBF02
:10221000FFF7FEBFFFF7FEBFFFF7FEBFFFF7FEBFF2
:10222000FFF7FEBFFFF7FEBFFFF7FEBFFFF7FEBFE2
:10223000FFF7FEBFFFF7FEBFFFF7FEBFFFF7FEBFD2
:10224000FFF7FEBFFFF7FEBFFFF7FEBFFFF7FEBFC2
:10225000FFF7FEBFFFF7FEBFFFF7FEBFFFF7FEBFB2
:10226000FFF7FEBFFFF7FEBFFFF7FEBFFFF7FEBFA2
:0C227000FFF7FEBFFFF7FEBFFFF7FEBF49
:0400000508002125A9
:00000001FF
